:100000000C9434000C943E000C943E000C943E0082
:100010000C943E000C943E000C943E000C943E0068
:100020000C943E000C943E000C943E000C943E0058
:100030000C943E000C943E000C943E000C943E0048
:100040000C943E000C943E000C943E000C943E0038
:100050000C943E000C943E000C943E000C943E0028
:100060000C943E000C943E0011241FBECFEFD8E04C
:10007000DEBFCDBF0E9461000C9484000C94000090
:1000800080E480937C0087E880937A0008959091C3
:100090007C008770892B80937C0080917A0080643B
:1000A00080937A0080917A0084FFFCCF80917A005F
:1000B000806180937A002091780030917900C901A5
:1000C00008951F93CF93DF938FEF84B915B880E421
:1000D00080937C0087E880937A00C0E9D1E01FEF2D
:1000E00015B880E00E94470088EE93E0FE0131974A
:1000F000F1F70197D9F715B988EE93E0FE01319732
:0C010000F1F70197D9F7ECCFF894FFCF8E
:00000001FF
