:100000000C9434000C9449000C9449000C94490061
:100010000C9449000C9449000C9449000C9449003C
:100020000C9449000C9449000C9449000C9449002C
:100030000C9449000C9449000C9449000C9449001C
:100040000C9449000C9449000C9449000C9449000C
:100050000C9449000C9449000C9449000C944900FC
:100060000C9449000C94490011241FBECFEFD8E036
:10007000DEBFCDBF11E0A0E0B1E0E4E9F2E002C0F4
:1000800005900D92A034B107D9F70E9477000C9427
:1000900048010C940000DF93CF930F92CDB7DEB7E9
:1000A000E0ECF0E080818823DCF7E6ECF0E0808192
:1000B000898389810F90CF91DF910895DF93CF934A
:1000C0000F92CDB7DEB78983E0ECF0E08081882F16
:1000D00090E0807290700097B9F3E6ECF0E08981CF
:1000E000808380E090E00F90CF91DF910895DF93BF
:1000F000CF93CDB7DEB7CC54D0400FB6F894DEBF67
:100100000FBECDBFCE01049625969FAF8EAF25972B
:10011000E0E0F1E02796FFAFEEAF2797F6E32896F1
:10012000FFAF28972796EEADFFAD27970080279663
:100130008EAD9FAD2797019627969FAF8EAF2797DD
:100140002596EEADFFAD2597008225968EAD9FAD2D
:100150002597019625969FAF8EAF259728969FAD40
:100160002897915028969FAF28972896EFAD28970B
:10017000EE23C1F6CE01CA962A969FAF8EAF2A977C
:10018000E6E3F1E02C96FFAFEEAF2C97F9E02D9669
:10019000FFAF2D972C96EEADFFAD2C9700802C96DF
:1001A0008EAD9FAD2C9701962C969FAF8EAF2C975E
:1001B0002A96EEADFFAD2A9700822A968EAD9FADAE
:1001C0002A9701962A969FAF8EAF2A972D969FADBC
:1001D0002D9791502D969FAF2D972D96EFAD2D9782
:1001E000EE23C1F6A1ECB0E0E1ECF0E080818861A3
:1001F0008C93A2ECB0E0E2ECF0E0808186608C931E
:10020000E5ECF0E01082E4ECF0E087E680831A820F
:10021000198210C029813A81CE010496FC01E20FB7
:10022000F31F208189819A8101969A838983822F85
:100230000E945E0029813A81CE010496FC01E20F02
:10024000F31F8081882331F71A82198210C0298117
:100250003A81CE01CA96FC01E20FF31F2081898109
:100260009A8101969A838983822F0E945E00298158
:100270003A81CE01CA96FC01E20FF31F80818823E8
:1002800031F70E944B008B838B810E945E00F9CF77
:04029000F894FFCF10
:100294000D0A57656C636F6D652120536572696142
:1002A4006C20636F6D6D756E69636174696F6E2028
:1002B400776F726C6421210D0A20476F6F64204CA4
:1002C40075636B0D0A00484B4E55203E3E200000DE
:00000001FF
